{
  "_format": "hh-sol-artifact-1",
  "contractName": "RiddleGame",
  "sourceName": "contracts/riddlegame.sol",
  "abi": [
    {
      "inputs": [],
      "name": "answer",
      "outputs": [
        {
          "internalType": "string",
          "name": "",
          "type": "string"
        }
      ],
      "stateMutability": "view",
      "type": "function"
    },
    {
      "inputs": [
        {
          "internalType": "string",
          "name": "_guess",
          "type": "string"
        }
      ],
      "name": "guess",
      "outputs": [],
      "stateMutability": "nonpayable",
      "type": "function"
    },
    {
      "inputs": [],
      "name": "riddle",
      "outputs": [
        {
          "internalType": "string",
          "name": "",
          "type": "string"
        }
      ],
      "stateMutability": "view",
      "type": "function"
    },
    {
      "inputs": [],
      "name": "winner",
      "outputs": [
        {
          "internalType": "address",
          "name": "",
          "type": "address"
        }
      ],
      "stateMutability": "view",
      "type": "function"
    }
  ],
  "bytecode": "0x608060405260405180606001604052806023815260200162000bd260239139600090816200002e919062000304565b506040518060400160405280600881526020017f6b6579626f6172640000000000000000000000000000000000000000000000008152506001908162000075919062000304565b503480156200008357600080fd5b50620003eb565b600081519050919050565b7f4e487b7100000000000000000000000000000000000000000000000000000000600052604160045260246000fd5b7f4e487b7100000000000000000000000000000000000000000000000000000000600052602260045260246000fd5b600060028204905060018216806200010c57607f821691505b602082108103620001225762000121620000c4565b5b50919050565b60008190508160005260206000209050919050565b60006020601f8301049050919050565b600082821b905092915050565b6000600883026200018c7fffffffffffffffffffffffffffffffffffffffffffffffffffffffffffffffff826200014d565b6200019886836200014d565b95508019841693508086168417925050509392505050565b6000819050919050565b6000819050919050565b6000620001e5620001df620001d984620001b0565b620001ba565b620001b0565b9050919050565b6000819050919050565b6200020183620001c4565b620002196200021082620001ec565b8484546200015a565b825550505050565b600090565b6200023062000221565b6200023d818484620001f6565b505050565b5b8181101562000265576200025960008262000226565b60018101905062000243565b5050565b601f821115620002b4576200027e8162000128565b62000289846200013d565b8101602085101562000299578190505b620002b1620002a8856200013d565b83018262000242565b50505b505050565b600082821c905092915050565b6000620002d960001984600802620002b9565b1980831691505092915050565b6000620002f48383620002c6565b9150826002028217905092915050565b6200030f826200008a565b67ffffffffffffffff8111156200032b576200032a62000095565b5b620003378254620000f3565b6200034482828562000269565b600060209050601f8311600181146200037c576000841562000367578287015190505b620003738582620002e6565b865550620003e3565b601f1984166200038c8662000128565b60005b82811015620003b6578489015182556001820191506020850194506020810190506200038f565b86831015620003d65784890151620003d2601f891682620002c6565b8355505b6001600288020188555050505b505050505050565b6107d780620003fb6000396000f3fe608060405234801561001057600080fd5b506004361061004c5760003560e01c80634eee59b31461005157806356049a861461006d57806385bb7d691461008b578063dfbf53ae146100a9575b600080fd5b61006b6004803603810190610066919061048d565b6100c7565b005b6100756101f1565b6040516100829190610555565b60405180910390f35b61009361027f565b6040516100a09190610555565b60405180910390f35b6100b161030d565b6040516100be91906105b8565b60405180910390f35b600073ffffffffffffffffffffffffffffffffffffffff16600260009054906101000a900473ffffffffffffffffffffffffffffffffffffffff1673ffffffffffffffffffffffffffffffffffffffff1614610158576040517f08c379a000000000000000000000000000000000000000000000000000000000815260040161014f9061061f565b60405180910390fd5b600160405160200161016a9190610742565b6040516020818303038152906040528051906020012081604051602001610191919061078a565b60405160208183030381529060405280519060200120036101ee5733600260006101000a81548173ffffffffffffffffffffffffffffffffffffffff021916908373ffffffffffffffffffffffffffffffffffffffff1602179055505b50565b600080546101fe9061066e565b80601f016020809104026020016040519081016040528092919081815260200182805461022a9061066e565b80156102775780601f1061024c57610100808354040283529160200191610277565b820191906000526020600020905b81548152906001019060200180831161025a57829003601f168201915b505050505081565b6001805461028c9061066e565b80601f01602080910402602001604051908101604052809291908181526020018280546102b89061066e565b80156103055780601f106102da57610100808354040283529160200191610305565b820191906000526020600020905b8154815290600101906020018083116102e857829003601f168201915b505050505081565b600260009054906101000a900473ffffffffffffffffffffffffffffffffffffffff1681565b6000604051905090565b600080fd5b600080fd5b600080fd5b600080fd5b6000601f19601f8301169050919050565b7f4e487b7100000000000000000000000000000000000000000000000000000000600052604160045260246000fd5b61039a82610351565b810181811067ffffffffffffffff821117156103b9576103b8610362565b5b80604052505050565b60006103cc610333565b90506103d88282610391565b919050565b600067ffffffffffffffff8211156103f8576103f7610362565b5b61040182610351565b9050602081019050919050565b82818337600083830152505050565b600061043061042b846103dd565b6103c2565b90508281526020810184848401111561044c5761044b61034c565b5b61045784828561040e565b509392505050565b600082601f83011261047457610473610347565b5b813561048484826020860161041d565b91505092915050565b6000602082840312156104a3576104a261033d565b5b600082013567ffffffffffffffff8111156104c1576104c0610342565b5b6104cd8482850161045f565b91505092915050565b600081519050919050565b600082825260208201905092915050565b60005b838110156105105780820151818401526020810190506104f5565b60008484015250505050565b6000610527826104d6565b61053181856104e1565b93506105418185602086016104f2565b61054a81610351565b840191505092915050565b6000602082019050818103600083015261056f818461051c565b905092915050565b600073ffffffffffffffffffffffffffffffffffffffff82169050919050565b60006105a282610577565b9050919050565b6105b281610597565b82525050565b60006020820190506105cd60008301846105a9565b92915050565b7f526964646c6520616c726561647920736f6c7665640000000000000000000000600082015250565b60006106096015836104e1565b9150610614826105d3565b602082019050919050565b60006020820190508181036000830152610638816105fc565b9050919050565b7f4e487b7100000000000000000000000000000000000000000000000000000000600052602260045260246000fd5b6000600282049050600182168061068657607f821691505b6020821081036106995761069861063f565b5b50919050565b600081905092915050565b60008190508160005260206000209050919050565b600081546106cc8161066e565b6106d6818661069f565b945060018216600081146106f1576001811461070657610739565b60ff1983168652811515820286019350610739565b61070f856106aa565b60005b8381101561073157815481890152600182019150602081019050610712565b838801955050505b50505092915050565b600061074e82846106bf565b915081905092915050565b6000610764826104d6565b61076e818561069f565b935061077e8185602086016104f2565b80840191505092915050565b60006107968284610759565b91508190509291505056fea26469706673582212202369fc457b9359f05ae1f0621f98eeaa2e524372afea144e51ad67d3d3d861d964736f6c634300081400335768617420686173206b657973206275742063616e2774206f70656e206c6f636b733f",
  "linkReferences": {},
  "deployedLinkReferences": {}
}